{
  "_format": "hh-sol-artifact-1",
  "contractName": "DappVotes",
  "sourceName": "contracts/DappVotes.sol",
  "abi": [
    {
      "anonymous": false,
      "inputs": [
        {
          "indexed": true,
          "internalType": "address",
          "name": "voter",
          "type": "address"
        },
        {
          "indexed": false,
          "internalType": "uint256",
          "name": "timestamp",
          "type": "uint256"
        }
      ],
      "name": "Voted",
      "type": "event"
    },
    {
      "inputs": [
        {
          "internalType": "uint256",
          "name": "id",
          "type": "uint256"
        },
        {
          "internalType": "string",
          "name": "name",
          "type": "string"
        },
        {
          "internalType": "string",
          "name": "image",
          "type": "string"
        }
      ],
      "name": "contest",
      "outputs": [],
      "stateMutability": "nonpayable",
      "type": "function"
    },
    {
      "inputs": [
        {
          "internalType": "string",
          "name": "image",
          "type": "string"
        },
        {
          "internalType": "string",
          "name": "title",
          "type": "string"
        },
        {
          "internalType": "string",
          "name": "description",
          "type": "string"
        },
        {
          "internalType": "uint256",
          "name": "startsAt",
          "type": "uint256"
        },
        {
          "internalType": "uint256",
          "name": "endsAt",
          "type": "uint256"
        }
      ],
      "name": "createPoll",
      "outputs": [],
      "stateMutability": "nonpayable",
      "type": "function"
    },
    {
      "inputs": [
        {
          "internalType": "uint256",
          "name": "id",
          "type": "uint256"
        }
      ],
      "name": "deletePoll",
      "outputs": [],
      "stateMutability": "nonpayable",
      "type": "function"
    },
    {
      "inputs": [
        {
          "internalType": "uint256",
          "name": "id",
          "type": "uint256"
        },
        {
          "internalType": "uint256",
          "name": "cid",
          "type": "uint256"
        }
      ],
      "name": "getContestant",
      "outputs": [
        {
          "components": [
            {
              "internalType": "uint256",
              "name": "id",
              "type": "uint256"
            },
            {
              "internalType": "string",
              "name": "image",
              "type": "string"
            },
            {
              "internalType": "string",
              "name": "name",
              "type": "string"
            },
            {
              "internalType": "address",
              "name": "voter",
              "type": "address"
            },
            {
              "internalType": "uint256",
              "name": "votes",
              "type": "uint256"
            },
            {
              "internalType": "address[]",
              "name": "voters",
              "type": "address[]"
            }
          ],
          "internalType": "struct DappVotes.ContestantStruct",
          "name": "",
          "type": "tuple"
        }
      ],
      "stateMutability": "view",
      "type": "function"
    },
    {
      "inputs": [
        {
          "internalType": "uint256",
          "name": "id",
          "type": "uint256"
        }
      ],
      "name": "getContestants",
      "outputs": [
        {
          "components": [
            {
              "internalType": "uint256",
              "name": "id",
              "type": "uint256"
            },
            {
              "internalType": "string",
              "name": "image",
              "type": "string"
            },
            {
              "internalType": "string",
              "name": "name",
              "type": "string"
            },
            {
              "internalType": "address",
              "name": "voter",
              "type": "address"
            },
            {
              "internalType": "uint256",
              "name": "votes",
              "type": "uint256"
            },
            {
              "internalType": "address[]",
              "name": "voters",
              "type": "address[]"
            }
          ],
          "internalType": "struct DappVotes.ContestantStruct[]",
          "name": "Contestants",
          "type": "tuple[]"
        }
      ],
      "stateMutability": "view",
      "type": "function"
    },
    {
      "inputs": [
        {
          "internalType": "uint256",
          "name": "id",
          "type": "uint256"
        }
      ],
      "name": "getPoll",
      "outputs": [
        {
          "components": [
            {
              "internalType": "uint256",
              "name": "id",
              "type": "uint256"
            },
            {
              "internalType": "string",
              "name": "image",
              "type": "string"
            },
            {
              "internalType": "string",
              "name": "title",
              "type": "string"
            },
            {
              "internalType": "string",
              "name": "description",
              "type": "string"
            },
            {
              "internalType": "uint256",
              "name": "votes",
              "type": "uint256"
            },
            {
              "internalType": "uint256",
              "name": "contestants",
              "type": "uint256"
            },
            {
              "internalType": "bool",
              "name": "deleted",
              "type": "bool"
            },
            {
              "internalType": "address",
              "name": "director",
              "type": "address"
            },
            {
              "internalType": "uint256",
              "name": "startsAt",
              "type": "uint256"
            },
            {
              "internalType": "uint256",
              "name": "endsAt",
              "type": "uint256"
            },
            {
              "internalType": "uint256",
              "name": "timestamp",
              "type": "uint256"
            },
            {
              "internalType": "address[]",
              "name": "voters",
              "type": "address[]"
            },
            {
              "internalType": "string[]",
              "name": "avatars",
              "type": "string[]"
            }
          ],
          "internalType": "struct DappVotes.PollStruct",
          "name": "",
          "type": "tuple"
        }
      ],
      "stateMutability": "view",
      "type": "function"
    },
    {
      "inputs": [],
      "name": "getPolls",
      "outputs": [
        {
          "components": [
            {
              "internalType": "uint256",
              "name": "id",
              "type": "uint256"
            },
            {
              "internalType": "string",
              "name": "image",
              "type": "string"
            },
            {
              "internalType": "string",
              "name": "title",
              "type": "string"
            },
            {
              "internalType": "string",
              "name": "description",
              "type": "string"
            },
            {
              "internalType": "uint256",
              "name": "votes",
              "type": "uint256"
            },
            {
              "internalType": "uint256",
              "name": "contestants",
              "type": "uint256"
            },
            {
              "internalType": "bool",
              "name": "deleted",
              "type": "bool"
            },
            {
              "internalType": "address",
              "name": "director",
              "type": "address"
            },
            {
              "internalType": "uint256",
              "name": "startsAt",
              "type": "uint256"
            },
            {
              "internalType": "uint256",
              "name": "endsAt",
              "type": "uint256"
            },
            {
              "internalType": "uint256",
              "name": "timestamp",
              "type": "uint256"
            },
            {
              "internalType": "address[]",
              "name": "voters",
              "type": "address[]"
            },
            {
              "internalType": "string[]",
              "name": "avatars",
              "type": "string[]"
            }
          ],
          "internalType": "struct DappVotes.PollStruct[]",
          "name": "Polls",
          "type": "tuple[]"
        }
      ],
      "stateMutability": "view",
      "type": "function"
    },
    {
      "inputs": [
        {
          "internalType": "uint256",
          "name": "id",
          "type": "uint256"
        },
        {
          "internalType": "string",
          "name": "image",
          "type": "string"
        },
        {
          "internalType": "string",
          "name": "title",
          "type": "string"
        },
        {
          "internalType": "string",
          "name": "description",
          "type": "string"
        },
        {
          "internalType": "uint256",
          "name": "startsAt",
          "type": "uint256"
        },
        {
          "internalType": "uint256",
          "name": "endsAt",
          "type": "uint256"
        }
      ],
      "name": "updatePoll",
      "outputs": [],
      "stateMutability": "nonpayable",
      "type": "function"
    },
    {
      "inputs": [
        {
          "internalType": "uint256",
          "name": "id",
          "type": "uint256"
        },
        {
          "internalType": "uint256",
          "name": "cid",
          "type": "uint256"
        }
      ],
      "name": "vote",
      "outputs": [],
      "stateMutability": "nonpayable",
      "type": "function"
    }
  ],
  "bytecode": "0x608060405234801561001057600080fd5b506123f7806100206000396000f3fe608060405234801561001057600080fd5b50600436106100935760003560e01c806366dd51dc1161006657806366dd51dc146100fe578063b384abef14610111578063cee9dc4514610124578063d343641114610144578063f0d0bc451461016457600080fd5b8063029433f014610098578063120fe89b146100ad5780631a8cbcaa146100cb5780631f35b51d146100eb575b600080fd5b6100ab6100a6366004611c4d565b610177565b005b6100b5610416565b6040516100c29190611ecc565b60405180910390f35b6100de6100d9366004611f2e565b610891565b6040516100c29190611f47565b6100ab6100f9366004611f2e565b610c13565b6100ab61010c366004611f61565b610cf4565b6100ab61011f366004611fce565b610efa565b610137610132366004611f2e565b6111d7565b6040516100c29190612067565b610157610152366004611fce565b6114db565b6040516100c291906120bc565b6100ab6101723660046120cf565b6116d6565b60008681526002602052604090205460ff166101ae5760405162461bcd60e51b81526004016101a590612169565b60405180910390fd5b60008681526003602052604090206006015461010090046001600160a01b031633146102125760405162461bcd60e51b8152602060048201526013602482015272556e617574686f72697a656420656e7469747960681b60448201526064016101a5565b600084511161025b5760405162461bcd60e51b81526020600482015260156024820152745469746c652063616e6e6f7420626520656d70747960581b60448201526064016101a5565b60008351116102ac5760405162461bcd60e51b815260206004820152601b60248201527f4465736372697074696f6e2063616e6e6f7420626520656d707479000000000060448201526064016101a5565b60008551116102f95760405162461bcd60e51b8152602060048201526019602482015278496d6167652055524c2063616e6e6f7420626520656d70747960381b60448201526064016101a5565b60008681526003602052604090206006015460ff161561035b5760405162461bcd60e51b815260206004820152601760248201527f506f6c6c696e6720616c72656164792064656c6574656400000000000000000060448201526064016101a5565b60008681526003602052604090206004015460011161038c5760405162461bcd60e51b81526004016101a590612191565b8181116103ab5760405162461bcd60e51b81526004016101a5906121c1565b60008681526003602052604090206002016103c68582612292565b506000868152600360208190526040909120016103e38482612292565b506000868152600360205260409020600781018390556008810182905560010161040d8682612292565b50505050505050565b6060600060015b600054811161045f5760008181526003602052604090206006015460ff1661044d578161044981612368565b9250505b8061045781612368565b91505061041d565b508067ffffffffffffffff81111561047957610479611baa565b6040519080825280602002602001820160405280156104b257816020015b61049f6119d2565b8152602001906001900390816104975790505b509150600060015b600054811161088b5760008181526003602052604090206006015460ff166108795760036000828152602001908152602001600020604051806101a00160405290816000820154815260200160018201805461051590612209565b80601f016020809104026020016040519081016040528092919081815260200182805461054190612209565b801561058e5780601f106105635761010080835404028352916020019161058e565b820191906000526020600020905b81548152906001019060200180831161057157829003601f168201915b505050505081526020016002820180546105a790612209565b80601f01602080910402602001604051908101604052809291908181526020018280546105d390612209565b80156106205780601f106105f557610100808354040283529160200191610620565b820191906000526020600020905b81548152906001019060200180831161060357829003601f168201915b5050505050815260200160038201805461063990612209565b80601f016020809104026020016040519081016040528092919081815260200182805461066590612209565b80156106b25780601f10610687576101008083540402835291602001916106b2565b820191906000526020600020905b81548152906001019060200180831161069557829003601f168201915b505050918352505060048201546020808301919091526005830154604080840191909152600684015460ff8116151560608501526001600160a01b0361010091829004166080850152600785015460a0850152600885015460c0850152600985015460e0850152600a850180548351818602810186019094528084529190940193919283018282801561076e57602002820191906000526020600020905b81546001600160a01b03168152600190910190602001808311610750575b50505050508152602001600b8201805480602002602001604051908101604052809291908181526020016000905b828210156108485783829060005260206000200180546107bb90612209565b80601f01602080910402602001604051908101604052809291908181526020018280546107e790612209565b80156108345780601f1061080957610100808354040283529160200191610834565b820191906000526020600020905b81548152906001019060200180831161081757829003601f168201915b50505050508152602001906001019061079c565b5050509152508590508361085b81612368565b94508151811061086d5761086d612381565b60200260200101819052505b8061088381612368565b9150506104ba565b50505090565b6108996119d2565b60036000838152602001908152602001600020604051806101a0016040529081600082015481526020016001820180546108d290612209565b80601f01602080910402602001604051908101604052809291908181526020018280546108fe90612209565b801561094b5780601f106109205761010080835404028352916020019161094b565b820191906000526020600020905b81548152906001019060200180831161092e57829003601f168201915b5050505050815260200160028201805461096490612209565b80601f016020809104026020016040519081016040528092919081815260200182805461099090612209565b80156109dd5780601f106109b2576101008083540402835291602001916109dd565b820191906000526020600020905b8154815290600101906020018083116109c057829003601f168201915b505050505081526020016003820180546109f690612209565b80601f0160208091040260200160405190810160405280929190818152602001828054610a2290612209565b8015610a6f5780601f10610a4457610100808354040283529160200191610a6f565b820191906000526020600020905b815481529060010190602001808311610a5257829003601f168201915b505050918352505060048201546020808301919091526005830154604080840191909152600684015460ff8116151560608501526001600160a01b0361010091829004166080850152600785015460a0850152600885015460c0850152600985015460e0850152600a8501805483518186028101860190945280845291909401939192830182828015610b2b57602002820191906000526020600020905b81546001600160a01b03168152600190910190602001808311610b0d575b50505050508152602001600b8201805480602002602001604051908101604052809291908181526020016000905b82821015610c05578382906000526020600020018054610b7890612209565b80601f0160208091040260200160405190810160405280929190818152602001828054610ba490612209565b8015610bf15780601f10610bc657610100808354040283529160200191610bf1565b820191906000526020600020905b815481529060010190602001808311610bd457829003601f168201915b505050505081526020019060010190610b59565b505050915250909392505050565b60008181526002602052604090205460ff16610c415760405162461bcd60e51b81526004016101a590612169565b60008181526003602052604090206006015461010090046001600160a01b03163314610ca55760405162461bcd60e51b8152602060048201526013602482015272556e617574686f72697a656420656e7469747960681b60448201526064016101a5565b600081815260036020526040902060040154600111610cd65760405162461bcd60e51b81526004016101a590612191565b6000908152600360205260409020600601805460ff19166001179055565b60008381526002602052604090205460ff16610d225760405162461bcd60e51b81526004016101a590612169565b6000825111610d6a5760405162461bcd60e51b81526020600482015260146024820152736e616d652063616e6e6f7420626520656d70747960601b60448201526064016101a5565b6000815111610db35760405162461bcd60e51b8152602060048201526015602482015274696d6167652063616e6e6f7420626520656d70747960581b60448201526064016101a5565b600083815260036020526040902060040154600111610de45760405162461bcd60e51b81526004016101a590612191565b610df2600180546001019055565b610dfa611a45565b6040818101849052602080830184815233606085015260018054855260008881526006845284812086518252909352929091208351815590518392820190610e429082612292565b5060408201516002820190610e579082612292565b5060608201516003820180546001600160a01b0319166001600160a01b039092169190911790556080820151600482015560a08201518051610ea3916005840191602090910190611a84565b50505060008481526003602090815260408220600b018054600181018255908352912001610ed18382612292565b506000848152600360205260408120600501805491610eef83612368565b919050555050505050565b60008281526002602052604090205460ff16610f285760405162461bcd60e51b81526004016101a590612169565b600082815260046020908152604080832033845290915290205460ff1615610f825760405162461bcd60e51b815260206004820152600d60248201526c105b1c9958591e481d9bdd1959609a1b60448201526064016101a5565b60008281526003602052604090206006015460ff1615610fdc5760405162461bcd60e51b8152602060048201526015602482015274506f6c6c696e67206e6f7420617661696c61626c6560581b60448201526064016101a5565b6000828152600360205260409020600501546001106110365760405162461bcd60e51b81526020600482015260166024820152754e6f7420656e6f75676820636f6e74657374616e747360501b60448201526064016101a5565b6000828152600360205260409020600701546110506119b3565b1015801561107557506000828152600360205260409020600801546110736119b3565b105b6110c15760405162461bcd60e51b815260206004820152601960248201527f566f74696e67206d75737420626520696e2073657373696f6e0000000000000060448201526064016101a5565b60008281526003602052604081206004018054916110de83612368565b90915550506000828152600360209081526040808320600a0180546001810182559084528284200180546001600160a01b0319163317905584835260068252808320848452909152812060040180549161113783612368565b9091555050600082815260066020908152604080832084845282528083206005018054600181810183559185528385200180546001600160a01b03191633908117909155868552600484528285208186529093529220805460ff19169092179091557f4d99b957a2bc29a30ebd96a7be8e68fe50a3c701db28a91436490b7d53870ca46111c26119b3565b60405190815260200160405180910390a25050565b6060600060015b6001548111611228576000848152600660209081526040808320848452909152902054819003611216578161121281612368565b9250505b8061122081612368565b9150506111de565b508067ffffffffffffffff81111561124257611242611baa565b60405190808252806020026020018201604052801561127b57816020015b611268611a45565b8152602001906001900390816112605790505b509150600060015b60015481116114d35760008581526006602090815260408083208484529091529020548190036114c1576000858152600660209081526040808320848452825291829020825160c081019093528054835260018101805491928401916112e890612209565b80601f016020809104026020016040519081016040528092919081815260200182805461131490612209565b80156113615780601f1061133657610100808354040283529160200191611361565b820191906000526020600020905b81548152906001019060200180831161134457829003601f168201915b5050505050815260200160028201805461137a90612209565b80601f01602080910402602001604051908101604052809291908181526020018280546113a690612209565b80156113f35780601f106113c8576101008083540402835291602001916113f3565b820191906000526020600020905b8154815290600101906020018083116113d657829003601f168201915b505050505081526020016003820160009054906101000a90046001600160a01b03166001600160a01b03166001600160a01b03168152602001600482015481526020016005820180548060200260200160405190810160405280929190818152602001828054801561148e57602002820191906000526020600020905b81546001600160a01b03168152600190910190602001808311611470575b5050505050815250508483806114a390612368565b9450815181106114b5576114b5612381565b60200260200101819052505b806114cb81612368565b915050611283565b505050919050565b6114e3611a45565b6000838152600660209081526040808320858452825291829020825160c0810190935280548352600181018054919284019161151e90612209565b80601f016020809104026020016040519081016040528092919081815260200182805461154a90612209565b80156115975780601f1061156c57610100808354040283529160200191611597565b820191906000526020600020905b81548152906001019060200180831161157a57829003601f168201915b505050505081526020016002820180546115b090612209565b80601f01602080910402602001604051908101604052809291908181526020018280546115dc90612209565b80156116295780601f106115fe57610100808354040283529160200191611629565b820191906000526020600020905b81548152906001019060200180831161160c57829003601f168201915b505050505081526020016003820160009054906101000a90046001600160a01b03166001600160a01b03166001600160a01b0316815260200160048201548152602001600582018054806020026020016040519081016040528092919081815260200182805480156116c457602002820191906000526020600020905b81546001600160a01b031681526001909101906020018083116116a6575b50505050508152505090505b92915050565b600084511161171f5760405162461bcd60e51b81526020600482015260156024820152745469746c652063616e6e6f7420626520656d70747960581b60448201526064016101a5565b60008351116117705760405162461bcd60e51b815260206004820152601b60248201527f4465736372697074696f6e2063616e6e6f7420626520656d707479000000000060448201526064016101a5565b60008551116117bd5760405162461bcd60e51b8152602060048201526019602482015278496d6167652055524c2063616e6e6f7420626520656d70747960381b60448201526064016101a5565b600082116118175760405162461bcd60e51b815260206004820152602160248201527f53746172742064617465206d7573742062652067726561746572207468616e206044820152600360fc1b60648201526084016101a5565b8181116118365760405162461bcd60e51b81526004016101a5906121c1565b611844600080546001019055565b61184c6119d2565b6000548152604081018590526060810184905260208101869052610100810183905261012081018290523360e08201526118846119b3565b61014082015280516000908152600360209081526040909120825181559082015182919060018201906118b79082612292565b50604082015160028201906118cc9082612292565b50606082015160038201906118e19082612292565b506080820151600482015560a0820151600582015560c082015160068201805460e08501516001600160a81b0319909116921515610100600160a81b031916929092176101006001600160a01b039093168302179055820151600782015561012082015160088201556101408201516009820155610160820151805161197191600a840191602090910190611a84565b50610180820151805161198e91600b840191602090910190611ae9565b505090516000908152600260205260409020805460ff19166001179055505050505050565b60006119c1426103e8612397565b6119cd906103e86123ae565b905090565b604051806101a0016040528060008152602001606081526020016060815260200160608152602001600081526020016000815260200160001515815260200160006001600160a01b0316815260200160008152602001600081526020016000815260200160608152602001606081525090565b6040518060c0016040528060008152602001606081526020016060815260200160006001600160a01b0316815260200160008152602001606081525090565b828054828255906000526020600020908101928215611ad9579160200282015b82811115611ad957825182546001600160a01b0319166001600160a01b03909116178255602090920191600190910190611aa4565b50611ae5929150611b3b565b5090565b828054828255906000526020600020908101928215611b2f579160200282015b82811115611b2f5782518290611b1f9082612292565b5091602001919060010190611b09565b50611ae5929150611b50565b5b80821115611ae55760008155600101611b3c565b80821115611ae5576000611b648282611b6d565b50600101611b50565b508054611b7990612209565b6000825580601f10611b89575050565b601f016020900490600052602060002090810190611ba79190611b3b565b50565b634e487b7160e01b600052604160045260246000fd5b600082601f830112611bd157600080fd5b813567ffffffffffffffff80821115611bec57611bec611baa565b604051601f8301601f19908116603f01168101908282118183101715611c1457611c14611baa565b81604052838152866020858801011115611c2d57600080fd5b836020870160208301376000602085830101528094505050505092915050565b60008060008060008060c08789031215611c6657600080fd5b86359550602087013567ffffffffffffffff80821115611c8557600080fd5b611c918a838b01611bc0565b96506040890135915080821115611ca757600080fd5b611cb38a838b01611bc0565b95506060890135915080821115611cc957600080fd5b50611cd689828a01611bc0565b9350506080870135915060a087013590509295509295509295565b6000815180845260005b81811015611d1757602081850181015186830182015201611cfb565b506000602082860101526020601f19601f83011685010191505092915050565b600081518084526020808501945080840160005b83811015611d705781516001600160a01b031687529582019590820190600101611d4b565b509495945050505050565b600082825180855260208086019550808260051b84010181860160005b84811015611dc657601f19868403018952611db4838351611cf1565b98840198925090830190600101611d98565b5090979650505050505050565b60006101a0825184526020830151816020860152611df382860182611cf1565b91505060408301518482036040860152611e0d8282611cf1565b91505060608301518482036060860152611e278282611cf1565b9150506080830151608085015260a083015160a085015260c0830151611e5160c086018215159052565b5060e0830151611e6c60e08601826001600160a01b03169052565b506101008381015190850152610120808401519085015261014080840151908501526101608084015185830382870152611ea68382611d37565b925050506101808084015185830382870152611ec28382611d7b565b9695505050505050565b6000602080830181845280855180835260408601915060408160051b870101925083870160005b82811015611f2157603f19888603018452611f0f858351611dd3565b94509285019290850190600101611ef3565b5092979650505050505050565b600060208284031215611f4057600080fd5b5035919050565b602081526000611f5a6020830184611dd3565b9392505050565b600080600060608486031215611f7657600080fd5b83359250602084013567ffffffffffffffff80821115611f9557600080fd5b611fa187838801611bc0565b93506040860135915080821115611fb757600080fd5b50611fc486828701611bc0565b9150509250925092565b60008060408385031215611fe157600080fd5b50508035926020909101359150565b805182526000602082015160c0602085015261200f60c0850182611cf1565b9050604083015184820360408601526120288282611cf1565b91505060018060a01b0360608401511660608501526080830151608085015260a083015184820360a086015261205e8282611d37565b95945050505050565b6000602080830181845280855180835260408601915060408160051b870101925083870160005b82811015611f2157603f198886030184526120aa858351611ff0565b9450928501929085019060010161208e565b602081526000611f5a6020830184611ff0565b600080600080600060a086880312156120e757600080fd5b853567ffffffffffffffff808211156120ff57600080fd5b61210b89838a01611bc0565b9650602088013591508082111561212157600080fd5b61212d89838a01611bc0565b9550604088013591508082111561214357600080fd5b5061215088828901611bc0565b9598949750949560608101359550608001359392505050565b6020808252600e908201526d141bdb1b081b9bdd08199bdd5b9960921b604082015260600190565b602080825260169082015275506f6c6c2068617320766f74657320616c726561647960501b604082015260600190565b60208082526028908201527f456e642064617465206d7573742062652067726561746572207468616e207374604082015267617274206461746560c01b606082015260800190565b600181811c9082168061221d57607f821691505b60208210810361223d57634e487b7160e01b600052602260045260246000fd5b50919050565b601f82111561228d57600081815260208120601f850160051c8101602086101561226a5750805b601f850160051c820191505b8181101561228957828155600101612276565b5050505b505050565b815167ffffffffffffffff8111156122ac576122ac611baa565b6122c0816122ba8454612209565b84612243565b602080601f8311600181146122f557600084156122dd5750858301515b600019600386901b1c1916600185901b178555612289565b600085815260208120601f198616915b8281101561232457888601518255948401946001909101908401612305565b50858210156123425787850151600019600388901b60f8161c191681555b5050505050600190811b01905550565b634e487b7160e01b600052601160045260246000fd5b60006001820161237a5761237a612352565b5060010190565b634e487b7160e01b600052603260045260246000fd5b80820281158282048414176116d0576116d0612352565b808201808211156116d0576116d061235256fea264697066735822122089b821088334a7ab3a54fff9dc2fab1349be3be9b932bb352ac8f372cf3c3feb64736f6c63430008110033",
  "linkReferences": {},
  "deployedLinkReferences": {}
}